{
  "contractName": "TaskManager",
  "abi": [
    {
      "constant": true,
      "inputs": [],
      "name": "nTasks",
      "outputs": [
        {
          "name": "",
          "type": "uint256"
        }
      ],
      "payable": false,
      "stateMutability": "view",
      "type": "function"
    },
    {
      "inputs": [],
      "payable": false,
      "stateMutability": "nonpayable",
      "type": "constructor"
    },
    {
      "anonymous": false,
      "inputs": [
        {
          "indexed": false,
          "name": "owner",
          "type": "address"
        },
        {
          "indexed": false,
          "name": "name",
          "type": "string"
        },
        {
          "indexed": false,
          "name": "phase",
          "type": "uint8"
        },
        {
          "indexed": false,
          "name": "priority",
          "type": "uint256"
        }
      ],
      "name": "TaskAdded",
      "type": "event"
    },
    {
      "constant": true,
      "inputs": [
        {
          "name": "_taskIndex",
          "type": "uint256"
        }
      ],
      "name": "getTask",
      "outputs": [
        {
          "name": "owner",
          "type": "address"
        },
        {
          "name": "name",
          "type": "string"
        },
        {
          "name": "phase",
          "type": "uint8"
        },
        {
          "name": "priority",
          "type": "uint256"
        }
      ],
      "payable": false,
      "stateMutability": "view",
      "type": "function"
    },
    {
      "constant": true,
      "inputs": [],
      "name": "listMyTasks",
      "outputs": [
        {
          "name": "",
          "type": "uint256[]"
        }
      ],
      "payable": false,
      "stateMutability": "view",
      "type": "function"
    },
    {
      "constant": false,
      "inputs": [
        {
          "name": "_name",
          "type": "string"
        },
        {
          "name": "_phase",
          "type": "uint8"
        },
        {
          "name": "_priority",
          "type": "uint256"
        }
      ],
      "name": "addTask",
      "outputs": [
        {
          "name": "index",
          "type": "uint256"
        }
      ],
      "payable": false,
      "stateMutability": "nonpayable",
      "type": "function"
    },
    {
      "constant": false,
      "inputs": [
        {
          "name": "_taskIndex",
          "type": "uint256"
        },
        {
          "name": "_phase",
          "type": "uint8"
        }
      ],
      "name": "updatePhase",
      "outputs": [],
      "payable": false,
      "stateMutability": "nonpayable",
      "type": "function"
    }
  ],
  "bytecode": "0x60806040523480156200001157600080fd5b50600080819055506200006c6040805190810160405280601381526020017f437265617465205461736b204d616e616765720000000000000000000000000081525060026001620000c7640100000000026401000000009004565b50620000c06040805190810160405280601681526020017f43726561746520596f7572206669727374207461736b0000000000000000000081525060006005620000c7640100000000026401000000009004565b50620004dd565b600060018210158015620000dc575060058211155b151562000151576040517f08c379a00000000000000000000000000000000000000000000000000000000081526004018080602001828103825260208152602001807f7072696f72697479206d757374206265206265747765656e203120616e64203581525060200191505060405180910390fd5b6200015b620003e3565b6080604051908101604052803373ffffffffffffffffffffffffffffffffffffffff1681526020018681526020018560068111156200019657fe5b8152602001848152509050600180829080600181540180825580915050906001820390600052602060002090600402016000909192909190915060008201518160000160006101000a81548173ffffffffffffffffffffffffffffffffffffffff021916908373ffffffffffffffffffffffffffffffffffffffff1602179055506020820151816001019080519060200190620002359291906200042e565b5060408201518160020160006101000a81548160ff021916908360068111156200025b57fe5b02179055506060820151816003015550500391506000808154809291906001019190505550600260003373ffffffffffffffffffffffffffffffffffffffff1673ffffffffffffffffffffffffffffffffffffffff1681526020019081526020016000208290806001815401808255809150509060018203906000526020600020016000909192909190915055507f6f01dc0a3f1209ed3a201b417e08a69b7ab49236895cbcfa0f62b481101d7e1033868686604051808573ffffffffffffffffffffffffffffffffffffffff1673ffffffffffffffffffffffffffffffffffffffff168152602001806020018460068111156200035557fe5b60ff168152602001838152602001828103825285818151815260200191508051906020019080838360005b838110156200039d57808201518184015260208101905062000380565b50505050905090810190601f168015620003cb5780820380516001836020036101000a031916815260200191505b509550505050505060405180910390a1509392505050565b608060405190810160405280600073ffffffffffffffffffffffffffffffffffffffff16815260200160608152602001600060068111156200042157fe5b8152602001600081525090565b828054600181600116156101000203166002900490600052602060002090601f016020900481019282601f106200047157805160ff1916838001178555620004a2565b82800160010185558215620004a2579182015b82811115620004a157825182559160200191906001019062000484565b5b509050620004b19190620004b5565b5090565b620004da91905b80821115620004d6576000816000905550600101620004bc565b5090565b90565b6109ee80620004ed6000396000f3fe608060405234801561001057600080fd5b5060043610610074576000357c0100000000000000000000000000000000000000000000000000000000900480631d65e77e146100795780633e625c401461016f578063a082a81914610255578063e2c53075146102b4578063e95528f1146102d2575b600080fd5b6100a56004803603602081101561008f57600080fd5b810190808035906020019092919050505061030d565b604051808573ffffffffffffffffffffffffffffffffffffffff1673ffffffffffffffffffffffffffffffffffffffff168152602001806020018460068111156100eb57fe5b60ff168152602001838152602001828103825285818151815260200191508051906020019080838360005b83811015610131578082015181840152602081019050610116565b50505050905090810190601f16801561015e5780820380516001836020036101000a031916815260200191505b509550505050505060405180910390f35b61023f6004803603606081101561018557600080fd5b81019080803590602001906401000000008111156101a257600080fd5b8201836020820111156101b457600080fd5b803590602001918460018302840111640100000000831117156101d657600080fd5b91908080601f016020809104026020016040519081016040528093929190818152602001838380828437600081840152601f19601f820116905080830192505050505050509192919290803560ff1690602001909291908035906020019092919050505061046c565b6040518082815260200191505060405180910390f35b61025d61077c565b6040518080602001828103825283818151815260200191508051906020019060200280838360005b838110156102a0578082015181840152602081019050610285565b505050509050019250505060405180910390f35b6102bc610811565b6040518082815260200191505060405180910390f35b61030b600480360360408110156102e857600080fd5b8101908080359060200190929190803560ff169060200190929190505050610817565b005b6000606060008060018581548110151561032357fe5b906000526020600020906004020160000160009054906101000a900473ffffffffffffffffffffffffffffffffffffffff16935060018581548110151561036657fe5b90600052602060002090600402016001018054600181600116156101000203166002900480601f01602080910402602001604051908101604052809291908181526020018280546001816001161561010002031660029004801561040b5780601f106103e05761010080835404028352916020019161040b565b820191906000526020600020905b8154815290600101906020018083116103ee57829003601f168201915b5050505050925060018581548110151561042157fe5b906000526020600020906004020160020160009054906101000a900460ff16915060018581548110151561045157fe5b90600052602060002090600402016003015490509193509193565b600060018210158015610480575060058211155b15156104f4576040517f08c379a00000000000000000000000000000000000000000000000000000000081526004018080602001828103825260208152602001807f7072696f72697479206d757374206265206265747765656e203120616e64203581525060200191505060405180910390fd5b6104fc6108d3565b6080604051908101604052803373ffffffffffffffffffffffffffffffffffffffff16815260200186815260200185600681111561053657fe5b8152602001848152509050600180829080600181540180825580915050906001820390600052602060002090600402016000909192909190915060008201518160000160006101000a81548173ffffffffffffffffffffffffffffffffffffffff021916908373ffffffffffffffffffffffffffffffffffffffff16021790555060208201518160010190805190602001906105d392919061091d565b5060408201518160020160006101000a81548160ff021916908360068111156105f857fe5b02179055506060820151816003015550500391506000808154809291906001019190505550600260003373ffffffffffffffffffffffffffffffffffffffff1673ffffffffffffffffffffffffffffffffffffffff1681526020019081526020016000208290806001815401808255809150509060018203906000526020600020016000909192909190915055507f6f01dc0a3f1209ed3a201b417e08a69b7ab49236895cbcfa0f62b481101d7e1033868686604051808573ffffffffffffffffffffffffffffffffffffffff1673ffffffffffffffffffffffffffffffffffffffff168152602001806020018460068111156106f157fe5b60ff168152602001838152602001828103825285818151815260200191508051906020019080838360005b8381101561073757808201518184015260208101905061071c565b50505050905090810190601f1680156107645780820380516001836020036101000a031916815260200191505b509550505050505060405180910390a1509392505050565b6060600260003373ffffffffffffffffffffffffffffffffffffffff1673ffffffffffffffffffffffffffffffffffffffff16815260200190815260200160002080548060200260200160405190810160405280929190818152602001828054801561080757602002820191906000526020600020905b8154815260200190600101908083116107f3575b5050505050905090565b60005481565b813373ffffffffffffffffffffffffffffffffffffffff1660018281548110151561083e57fe5b906000526020600020906004020160000160009054906101000a900473ffffffffffffffffffffffffffffffffffffffff1673ffffffffffffffffffffffffffffffffffffffff1614156108ce578160018481548110151561089c57fe5b906000526020600020906004020160020160006101000a81548160ff021916908360068111156108c857fe5b02179055505b505050565b608060405190810160405280600073ffffffffffffffffffffffffffffffffffffffff168152602001606081526020016000600681111561091057fe5b8152602001600081525090565b828054600181600116156101000203166002900490600052602060002090601f016020900481019282601f1061095e57805160ff191683800117855561098c565b8280016001018555821561098c579182015b8281111561098b578251825591602001919060010190610970565b5b509050610999919061099d565b5090565b6109bf91905b808211156109bb5760008160009055506001016109a3565b5090565b9056fea165627a7a7230582010cbdd0208066a19ba2b6acfe02d1daad7a45e3f9fed287bee8d762c4791aa630029",
  "source": "pragma solidity 0.5.4;\r\n\r\ncontract TaskManager {\r\n\r\n    // Declara inteiro de numero de Tasks\r\n    uint public nTasks;\r\n    \r\n    //enum Mostra em que estado está a Task\r\n    enum TaskPhase {ToDo, InProgress, Done, Blocked, Review, Postponed, Canceled}\r\n    \r\n    //struct Mostra a identificação da Task\r\n    struct TaskStruct {\r\n        address owner;\r\n        string name;\r\n        TaskPhase phase;\r\n        uint priority;\r\n    }\r\n\r\n    // Declara Array de Tasks\r\n    TaskStruct[] private tasks;\r\n    \r\n    mapping (address => uint[]) private myTasks;\r\n\r\n    event TaskAdded(address owner, string name, TaskPhase phase, uint priority);\r\n    \r\n    // Tasks apenas para o dono\r\n    modifier onlyOwner (uint _taskIndex) {\r\n        // Se o dono é igual quem está enviado a transação\r\n         if  (tasks[_taskIndex].owner == msg.sender) {\r\n           _;\r\n        }\r\n    }\r\n    \r\n    // Inicia Tasks\r\n    constructor() public {\r\n        nTasks = 0;      \r\n        addTask (\"Create Task Manager\", TaskPhase.Done, 1);\r\n        addTask (\"Create Your first task\", TaskPhase.ToDo, 5);\r\n    }    \r\n\r\n    // Retorna os dados da struct\r\n    function getTask(uint _taskIndex) public view\r\n        returns (address owner, string memory name, TaskPhase phase, uint priority) {\r\n        \r\n        owner = tasks[_taskIndex].owner;\r\n        name = tasks[_taskIndex].name;\r\n        phase = tasks[_taskIndex].phase;\r\n        priority = tasks[_taskIndex].priority;\r\n    }\r\n    \r\n    // Retorna as Tasks, em memória porque não fica gravado no contrato\r\n    function listMyTasks() public view returns (uint[] memory) {\r\n        return myTasks[msg.sender];\r\n    }\r\n    \r\n    // Adiciona uma Task no Blockchain\r\n    function addTask(string memory _name, TaskPhase _phase, uint _priority) public returns (uint index) {\r\n        // require Tratamento de erro\r\n        require ((_priority >= 1 && _priority <=5), \"priority must be between 1 and 5\");\r\n        TaskStruct memory taskAux = TaskStruct ({\r\n            owner: msg.sender,\r\n            name: _name,\r\n            phase: _phase, \r\n            priority: _priority\r\n        });\r\n        index = tasks.push (taskAux) - 1;\r\n        nTasks ++;\r\n        myTasks[msg.sender].push(index);\r\n        emit TaskAdded (msg.sender, _name, _phase, _priority);\r\n    }\r\n    \r\n    function updatePhase(uint _taskIndex, TaskPhase _phase) public onlyOwner(_taskIndex) {\r\n        tasks[_taskIndex].phase = _phase;\r\n    }\r\n    \r\n}",
  "sourcePath": "C:/Users/John/Desktop/matrix/playground/blockchain/contracts/TaskManager.sol",
  "compiler": {
    "name": "solc",
    "version": "0.5.4+commit.9549d8ff.Emscripten.clang"
  },
  "schemaVersion": "3.4.1",
  "updatedAt": "2021-05-14T19:18:28.616Z",
  "networkType": "ethereum",
  "devdoc": {
    "methods": {}
  },
  "userdoc": {
    "methods": {}
  }
}